{"abi":[{"type":"constructor","inputs":[{"name":"initialOwner","type":"address","internalType":"address"},{"name":"ketum","type":"tuple[]","internalType":"struct Election.Candidate[]","components":[{"name":"id","type":"uint256","internalType":"uint256"},{"name":"name","type":"string","internalType":"string"}]},{"name":"waketum","type":"tuple[]","internalType":"struct Election.Candidate[]","components":[{"name":"id","type":"uint256","internalType":"uint256"},{"name":"name","type":"string","internalType":"string"}]}],"stateMutability":"nonpayable"},{"type":"function","name":"finalize","inputs":[],"outputs":[],"stateMutability":"nonpayable"},{"type":"function","name":"finalized","inputs":[],"outputs":[{"name":"","type":"bool","internalType":"bool"}],"stateMutability":"view"},{"type":"function","name":"getKetumCandidates","inputs":[],"outputs":[{"name":"","type":"tuple[]","internalType":"struct Election.Candidate[]","components":[{"name":"id","type":"uint256","internalType":"uint256"},{"name":"name","type":"string","internalType":"string"}]}],"stateMutability":"view"},{"type":"function","name":"getResults","inputs":[],"outputs":[{"name":"ketumResult","type":"tuple[]","internalType":"struct Election.ResultItem[]","components":[{"name":"candidateId","type":"uint256","internalType":"uint256"},{"name":"votes","type":"uint256","internalType":"uint256"}]},{"name":"waketumResult","type":"tuple[]","internalType":"struct Election.ResultItem[]","components":[{"name":"candidateId","type":"uint256","internalType":"uint256"},{"name":"votes","type":"uint256","internalType":"uint256"}]}],"stateMutability":"view"},{"type":"function","name":"getWaketumCandidates","inputs":[],"outputs":[{"name":"","type":"tuple[]","internalType":"struct Election.Candidate[]","components":[{"name":"id","type":"uint256","internalType":"uint256"},{"name":"name","type":"string","internalType":"string"}]}],"stateMutability":"view"},{"type":"function","name":"hasVotedByKey","inputs":[{"name":"","type":"bytes32","internalType":"bytes32"}],"outputs":[{"name":"","type":"bool","internalType":"bool"}],"stateMutability":"view"},{"type":"function","name":"hasVotedKetum","inputs":[{"name":"","type":"address","internalType":"address"}],"outputs":[{"name":"","type":"bool","internalType":"bool"}],"stateMutability":"view"},{"type":"function","name":"hasVotedWaketum","inputs":[{"name":"","type":"address","internalType":"address"}],"outputs":[{"name":"","type":"bool","internalType":"bool"}],"stateMutability":"view"},{"type":"function","name":"ketumVotes","inputs":[{"name":"","type":"uint256","internalType":"uint256"}],"outputs":[{"name":"","type":"uint256","internalType":"uint256"}],"stateMutability":"view"},{"type":"function","name":"owner","inputs":[],"outputs":[{"name":"","type":"address","internalType":"address"}],"stateMutability":"view"},{"type":"function","name":"pause","inputs":[],"outputs":[],"stateMutability":"nonpayable"},{"type":"function","name":"paused","inputs":[],"outputs":[{"name":"","type":"bool","internalType":"bool"}],"stateMutability":"view"},{"type":"function","name":"setWhitelist","inputs":[{"name":"voter","type":"address","internalType":"address"},{"name":"allowed","type":"bool","internalType":"bool"}],"outputs":[],"stateMutability":"nonpayable"},{"type":"function","name":"setWhitelistBatch","inputs":[{"name":"voters","type":"address[]","internalType":"address[]"},{"name":"allowed","type":"bool","internalType":"bool"}],"outputs":[],"stateMutability":"nonpayable"},{"type":"function","name":"unpause","inputs":[],"outputs":[],"stateMutability":"nonpayable"},{"type":"function","name":"voteByKey","inputs":[{"name":"voterKey","type":"bytes32","internalType":"bytes32"},{"name":"ketumCandidateId","type":"uint256","internalType":"uint256"},{"name":"waketumCandidateId","type":"uint256","internalType":"uint256"}],"outputs":[],"stateMutability":"nonpayable"},{"type":"function","name":"voteKetum","inputs":[{"name":"candidateId","type":"uint256","internalType":"uint256"}],"outputs":[],"stateMutability":"nonpayable"},{"type":"function","name":"voteWaketum","inputs":[{"name":"candidateId","type":"uint256","internalType":"uint256"}],"outputs":[],"stateMutability":"nonpayable"},{"type":"function","name":"waketumVotes","inputs":[{"name":"","type":"uint256","internalType":"uint256"}],"outputs":[{"name":"","type":"uint256","internalType":"uint256"}],"stateMutability":"view"},{"type":"function","name":"whitelist","inputs":[{"name":"","type":"address","internalType":"address"}],"outputs":[{"name":"","type":"bool","internalType":"bool"}],"stateMutability":"view"},{"type":"event","name":"ElectionFinalized","inputs":[{"name":"timestamp","type":"uint256","indexed":false,"internalType":"uint256"}],"anonymous":false},{"type":"event","name":"VoteCast","inputs":[{"name":"voter","type":"address","indexed":true,"internalType":"address"},{"name":"position","type":"uint8","indexed":true,"internalType":"uint8"},{"name":"candidateId","type":"uint256","indexed":true,"internalType":"uint256"}],"anonymous":false},{"type":"event","name":"VoteCastByKey","inputs":[{"name":"voterKey","type":"bytes32","indexed":true,"internalType":"bytes32"},{"name":"ketumCandidateId","type":"uint256","indexed":true,"internalType":"uint256"},{"name":"waketumCandidateId","type":"uint256","indexed":true,"internalType":"uint256"}],"anonymous":false},{"type":"event","name":"VoterWhitelisted","inputs":[{"name":"voter","type":"address","indexed":true,"internalType":"address"},{"name":"allowed","type":"bool","indexed":false,"internalType":"bool"}],"anonymous":false},{"type":"error","name":"AlreadyVoted","inputs":[]},{"type":"error","name":"ElectionIsFinalized","inputs":[]},{"type":"error","name":"InvalidCandidate","inputs":[]},{"type":"error","name":"UnauthorizedVoter","inputs":[]}],"bytecode":{"object":"0x608060405234801562000010575f80fd5b506040516200188c3803806200188c83398101604081905262000033916200052a565b6001600160a01b0383166200007f5760405162461bcd60e51b815260206004820152600d60248201526c34b73b30b634b21037bbb732b960991b60448201526064015b60405180910390fd5b600a805462010000600160b01b031916620100006001600160a01b03861602179055815115801590620000b257505f8151115b620000f35760405162461bcd60e51b815260206004820152601060248201526f656d7074792063616e6469646174657360801b604482015260640162000076565b5f5b8251811015620002215760065f848381518110620001175762000117620005ae565b6020908102919091018101515182528101919091526040015f205460ff1615620001795760405162461bcd60e51b8152602060048201526012602482015271191d5c1b1a58d85d19481ad95d1d5b481a5960721b604482015260640162000076565b600160065f858481518110620001935762000193620005ae565b60200260200101515f015181526020019081526020015f205f6101000a81548160ff0219169083151502179055506008838281518110620001d857620001d8620005ae565b6020908102919091018101518254600181810185555f9485529383902082516002909202019081559181015190928201906200021590826200064c565b505050600101620000f5565b505f5b81518110156200035b5760075f838381518110620002465762000246620005ae565b6020908102919091018101515182528101919091526040015f205460ff1615620002b35760405162461bcd60e51b815260206004820152601460248201527f6475706c69636174652077616b6574756d206964000000000000000000000000604482015260640162000076565b600160075f848481518110620002cd57620002cd620005ae565b60200260200101515f015181526020019081526020015f205f6101000a81548160ff0219169083151502179055506009828281518110620003125762000312620005ae565b6020908102919091018101518254600181810185555f9485529383902082516002909202019081559181015190928201906200034f90826200064c565b50505060010162000224565b5050505062000718565b634e487b7160e01b5f52604160045260245ffd5b604080519081016001600160401b03811182821017156200039e576200039e62000365565b60405290565b604051601f8201601f191681016001600160401b0381118282101715620003cf57620003cf62000365565b604052919050565b5f601f83601f840112620003e9575f80fd5b825160206001600160401b038083111562000408576200040862000365565b8260051b62000419838201620003a4565b938452868101830193838101908986111562000433575f80fd5b84890192505b858310156200051d5782518481111562000451575f80fd5b89016040601f19828d03810182131562000469575f80fd5b6200047362000379565b88840151815282840151888111156200048a575f80fd5b8085019450508d603f8501126200049f575f80fd5b8884015188811115620004b657620004b662000365565b620004c78a848e84011601620003a4565b92508083528e84828701011115620004dd575f80fd5b5f5b81811015620004fc578581018501518482018c01528a01620004df565b505f9083018a01528089019190915284525050918401919084019062000439565b9998505050505050505050565b5f805f606084860312156200053d575f80fd5b83516001600160a01b038116811462000554575f80fd5b60208501519093506001600160401b038082111562000571575f80fd5b6200057f87838801620003d7565b9350604086015191508082111562000595575f80fd5b50620005a486828701620003d7565b9150509250925092565b634e487b7160e01b5f52603260045260245ffd5b600181811c90821680620005d757607f821691505b602082108103620005f657634e487b7160e01b5f52602260045260245ffd5b50919050565b601f8211156200064757805f5260205f20601f840160051c81016020851015620006235750805b601f840160051c820191505b8181101562000644575f81556001016200062f565b50505b505050565b81516001600160401b0381111562000668576200066862000365565b6200068081620006798454620005c2565b84620005fc565b602080601f831160018114620006b6575f84156200069e5750858301515b5f19600386901b1c1916600185901b17855562000710565b5f85815260208120601f198616915b82811015620006e657888601518255948401946001909101908401620006c5565b50858210156200070457878501515f19600388901b60f8161c191681555b505060018460011b0185555b505050505050565b61116680620007265f395ff3fe608060405234801561000f575f80fd5b5060043610610127575f3560e01c806396daf68e116100a9578063b474b9de1161006e578063b474b9de1461028b578063b6489e1d146102aa578063cda026b2146102cc578063d03f2b3c146102ee578063f3672f6514610301575f80fd5b806396daf68e146102095780639b19251a14610236578063a38446cc14610258578063a58da0be1461026b578063b3f05b971461027e575f80fd5b806353d6fd59116100ef57806353d6fd59146101a35780635c975abb146101b65780636562341e146101c85780638456cb59146101d05780638da5cb5b146101d8575f80fd5b806335c9c3eb1461012b5780633f4ba83a1461014957806341cd707b146101535780634717f97c146101855780634bb278f31461019b575b5f80fd5b610133610314565b6040516101409190610e13565b60405180910390f35b610151610409565b005b610175610161366004610ebd565b60036020525f908152604090205460ff1681565b6040519015158152602001610140565b61018d61044f565b604051610140929190610f19565b610151610619565b6101516101b1366004610f70565b6106b6565b600a5461017590610100900460ff1681565b610133610766565b610151610852565b600a546101f1906201000090046001600160a01b031681565b6040516001600160a01b039091168152602001610140565b610228610217366004610ebd565b60056020525f908152604090205481565b604051908152602001610140565b610175610244366004610fa1565b5f6020819052908152604090205460ff1681565b610151610266366004610fc1565b610893565b610151610279366004610fea565b610a5c565b600a546101759060ff1681565b610228610299366004610ebd565b60046020525f908152604090205481565b6101756102b8366004610fa1565b60016020525f908152604090205460ff1681565b6101756102da366004610fa1565b60026020525f908152604090205460ff1681565b6101516102fc366004610ebd565b610b84565b61015161030f366004610ebd565b610cce565b60606008805480602002602001604051908101604052809291908181526020015f905b82821015610400578382905f5260205f2090600202016040518060400160405290815f820154815260200160018201805461037190611067565b80601f016020809104026020016040519081016040528092919081815260200182805461039d90611067565b80156103e85780601f106103bf576101008083540402835291602001916103e8565b820191905f5260205f20905b8154815290600101906020018083116103cb57829003601f168201915b50505050508152505081526020019060010190610337565b50505050905090565b600a546201000090046001600160a01b031633146104425760405162461bcd60e51b81526004016104399061109f565b60405180910390fd5b600a805461ff0019169055565b600854606090819067ffffffffffffffff81111561046f5761046f6110c3565b6040519080825280602002602001820160405280156104b357816020015b604080518082019091525f808252602082015281526020019060019003908161048d5790505b5060095490925067ffffffffffffffff8111156104d2576104d26110c3565b60405190808252806020026020018201604052801561051657816020015b604080518082019091525f80825260208201528152602001906001900390816104f05790505b5090505f5b600854811015610596575f60088281548110610539576105396110d7565b905f5260205f2090600202015f01549050604051806040016040528082815260200160045f8481526020019081526020015f2054815250848381518110610582576105826110d7565b60209081029190910101525060010161051b565b505f5b600954811015610614575f600982815481106105b7576105b76110d7565b905f5260205f2090600202015f01549050604051806040016040528082815260200160055f8481526020019081526020015f2054815250838381518110610600576106006110d7565b602090810291909101015250600101610599565b509091565b600a546201000090046001600160a01b031633146106495760405162461bcd60e51b81526004016104399061109f565b600a5460ff161561066d5760405163023e488b60e01b815260040160405180910390fd5b600a805460ff191660011790556040517f91dd42272d56833844c782309d408c2ce0612df469d35fcbf2bef1a8e21e4f95906106ac9042815260200190565b60405180910390a1565b600a546201000090046001600160a01b031633146106e65760405162461bcd60e51b81526004016104399061109f565b600a5460ff161561070a5760405163023e488b60e01b815260040160405180910390fd5b6001600160a01b0382165f8181526020818152604091829020805460ff191685151590811790915591519182527f740cba342fa8ba48b74fc5278797eb1280add3ce55edb4722940c9253173900d910160405180910390a25050565b60606009805480602002602001604051908101604052809291908181526020015f905b82821015610400578382905f5260205f2090600202016040518060400160405290815f82015481526020016001820180546107c390611067565b80601f01602080910402602001604051908101604052809291908181526020018280546107ef90611067565b801561083a5780601f106108115761010080835404028352916020019161083a565b820191905f5260205f20905b81548152906001019060200180831161081d57829003601f168201915b50505050508152505081526020019060010190610789565b600a546201000090046001600160a01b031633146108825760405162461bcd60e51b81526004016104399061109f565b600a805461ff001916610100179055565b600a546201000090046001600160a01b031633146108c35760405162461bcd60e51b81526004016104399061109f565b600a54610100900460ff16156108eb5760405162461bcd60e51b8152600401610439906110eb565b600a5460ff161561090f5760405163023e488b60e01b815260040160405180910390fd5b826109505760405162461bcd60e51b8152602060048201526011602482015270696e76616c696420766f746572206b657960781b6044820152606401610439565b5f8381526003602052604090205460ff161561097f57604051637c9a1cf960e01b815260040160405180910390fd5b5f8281526006602052604090205460ff1615806109aa57505f8181526007602052604090205460ff16155b156109c85760405163e66ea08f60e01b815260040160405180910390fd5b5f838152600360209081526040808320805460ff1916600190811790915585845260049092528220805491929091610a0190849061110b565b90915550505f818152600560205260408120805460019290610a2490849061110b565b90915550506040518190839085907fb6029f37434df16518f0940a6a56a0cf5d3cba8f01a059578018f3240d1133be905f90a4505050565b600a546201000090046001600160a01b03163314610a8c5760405162461bcd60e51b81526004016104399061109f565b600a5460ff1615610ab05760405163023e488b60e01b815260040160405180910390fd5b5f5b82811015610b7e57815f80868685818110610acf57610acf6110d7565b9050602002016020810190610ae49190610fa1565b6001600160a01b0316815260208101919091526040015f20805460ff1916911515919091179055838382818110610b1d57610b1d6110d7565b9050602002016020810190610b329190610fa1565b6001600160a01b03167f740cba342fa8ba48b74fc5278797eb1280add3ce55edb4722940c9253173900d83604051610b6e911515815260200190565b60405180910390a2600101610ab2565b50505050565b600a54610100900460ff1615610bac5760405162461bcd60e51b8152600401610439906110eb565b600a5460ff1615610bd05760405163023e488b60e01b815260040160405180910390fd5b335f9081526020819052604090205460ff16610bff576040516313c8b92b60e21b815260040160405180910390fd5b335f9081526002602052604090205460ff1615610c2f57604051637c9a1cf960e01b815260040160405180910390fd5b5f8181526007602052604090205460ff16610c5d5760405163e66ea08f60e01b815260040160405180910390fd5b335f908152600260209081526040808320805460ff1916600190811790915584845260059092528220805491929091610c9790849061110b565b9091555050604051819060019033907fd9d9fd0caa964abf9540e87552b03d0f6f1427c14e4d23c647cc9f24efc08488905f90a450565b600a54610100900460ff1615610cf65760405162461bcd60e51b8152600401610439906110eb565b600a5460ff1615610d1a5760405163023e488b60e01b815260040160405180910390fd5b335f9081526020819052604090205460ff16610d49576040516313c8b92b60e21b815260040160405180910390fd5b335f9081526001602052604090205460ff1615610d7957604051637c9a1cf960e01b815260040160405180910390fd5b5f8181526006602052604090205460ff16610da75760405163e66ea08f60e01b815260040160405180910390fd5b335f908152600160208181526040808420805460ff19168417905584845260049091528220805491929091610ddd90849061110b565b909155505060405181905f9033907fd9d9fd0caa964abf9540e87552b03d0f6f1427c14e4d23c647cc9f24efc08488908390a450565b5f60208083018184528085518083526040925060408601915060408160051b8701018488015f5b83811015610eaf57888303603f1901855281518051845287015187840187905280518785018190525f5b81811015610e80578281018a0151868201606001528901610e64565b505f85820160609081019190915296890196601f909101601f1916909401909301925090860190600101610e3a565b509098975050505050505050565b5f60208284031215610ecd575f80fd5b5035919050565b5f815180845260208085019450602084015f5b83811015610f0e578151805188528301518388015260409096019590820190600101610ee7565b509495945050505050565b604081525f610f2b6040830185610ed4565b8281036020840152610f3d8185610ed4565b95945050505050565b80356001600160a01b0381168114610f5c575f80fd5b919050565b80358015158114610f5c575f80fd5b5f8060408385031215610f81575f80fd5b610f8a83610f46565b9150610f9860208401610f61565b90509250929050565b5f60208284031215610fb1575f80fd5b610fba82610f46565b9392505050565b5f805f60608486031215610fd3575f80fd5b505081359360208301359350604090920135919050565b5f805f60408486031215610ffc575f80fd5b833567ffffffffffffffff80821115611013575f80fd5b818601915086601f830112611026575f80fd5b813581811115611034575f80fd5b8760208260051b8501011115611048575f80fd5b60209283019550935061105e9186019050610f61565b90509250925092565b600181811c9082168061107b57607f821691505b60208210810361109957634e487b7160e01b5f52602260045260245ffd5b50919050565b6020808252600a908201526937b7363c9037bbb732b960b11b604082015260600190565b634e487b7160e01b5f52604160045260245ffd5b634e487b7160e01b5f52603260045260245ffd5b6020808252600690820152651c185d5cd95960d21b604082015260600190565b8082018082111561112a57634e487b7160e01b5f52601160045260245ffd5b9291505056fea2646970667358221220395d7718b96e8aac354d61204a943e990ee71ee5c5d575adef270e73ebf1810364736f6c63430008180033","linkReferences":{}},"methodIdentifiers":{"finalize()":"4bb278f3","finalized()":"b3f05b97","getKetumCandidates()":"35c9c3eb","getResults()":"4717f97c","getWaketumCandidates()":"6562341e","hasVotedByKey(bytes32)":"41cd707b","hasVotedKetum(address)":"b6489e1d","hasVotedWaketum(address)":"cda026b2","ketumVotes(uint256)":"b474b9de","owner()":"8da5cb5b","pause()":"8456cb59","paused()":"5c975abb","setWhitelist(address,bool)":"53d6fd59","setWhitelistBatch(address[],bool)":"a58da0be","unpause()":"3f4ba83a","voteByKey(bytes32,uint256,uint256)":"a38446cc","voteKetum(uint256)":"f3672f65","voteWaketum(uint256)":"d03f2b3c","waketumVotes(uint256)":"96daf68e","whitelist(address)":"9b19251a"},"id":1}